:020000040800F2
:10000000001000204D2200084B2501084B25010857
:100010004B2501084B2501084B2501084B250108FC
:100020004B2501084B2501084B2501084B250108EC
:100030004B2501084B2501084B2501084B250108DC
:100040004B2501084B2501084B2501084B250108CC
:100050004B2501084B2501084B2501084B250108BC
:100060004B2501084B2501084B250108A518000860
:10007000671E01084B2501084B250108312900089E
:100080004B2501084B2501084B2501084B2501088C
:100090004B250108A94700084B2501084B250108FD
:1000A0004B250108A9490008854900084B2501088E
:1000B0004B2501084B2501084B2501084B2501085C
:1000C0004B2501084B2501084B2501084B2501084C
:1000D0004B2501084B2501084B2501084B2501083C
:1000E0004B2501084B2501084B2501084B2501082C
:1000F0004B2501084B2501084B2501084B2501081C
:100100004B2501084B2501084B2501084B2501080B
:100110004B2501084B2501084B2501084B250108FB
:100120004B2501084B2501084B2501084B250108EB
:100130004B2501084B2501084B2501084B250108DB
:100140004B2501084B2501084B2501089F2E01086E
:100150004B2501084B2501084B2501084B250108BB
:100160004B2501084B2501084B2501084B250108AB
:10017000013800D0FCE77047D0B51BA7D7E900676E
:100180002DED028B04469FED1A8AD4ED007AF4EE31
:10019000C87AF1EE10FA0EDA13A7D7E900679FEDDF
:1001A000158AD4ED007AF4EEC87AF1EE10FA0ED486
:1001B000BDEC028BD0BD17EE900A0FF01FF832464F
:1001C0003B460EF0BBFE0FF033FB2060DDE717EE81
:1001D000900A0FF013F832463B460EF0B1FE0FF0D6
:1001E00027FB2060DDE700BF182D4454FB21194098
:1001F000DB0F4940DB0F49C038B50022164B51ECEC
:10020000100B0FF053F810A3D3E9002304460D465A
:100210000FF0DCFA70B90EA3D3E90023204629467B
:100220000FF0B6FA58B9204629460FF037FE00EE17
:10023000100A38BD47F6FF3300EE103AF9E74FF6E3
:10024000FF33F9E7AFF300800000000000FCEF404F
:100250000000000000FCEFC00000E04000000000D3
:100260002DE9F74F0446DDE90C7B886816469A466F
:100270000D460EF0C3FF8046B06889460EF0BEFF03
:1002800002460B46404649460FF010F88046894624
:10029000BAF1000F1BD0DAF808000EF0AFFF0246EB
:1002A0000B46404649460EF049FE8046B86821F0AC
:1002B00000490EF0A3FF02460B46404649460FF0A8
:1002C0001FF912A3D3E900230FF06CFA50B13B469B
:1002D000324629462046CDF830B003B0BDE8F04F95
:1002E0000CF0AABA064B20460093656940F245130C
:1002F000044A0549A847012003B0BDE8F08F00BFBC
:1003000067A20108B4A101083D9B01087B14AE4718
:10031000E17A943F000000002DE9F84F4FF00043D0
:100320002DED028B23FA00F057EC106B59EC118B7A
:1003300093468A460EF050FF424604460D464B4611
:10034000304639460EF0B2FF02460B46204629469B
:100350000EF0ACFF02460B4643EC182B0AA3D3E980
:1003600000230FF033FA08B19FED078B5946504632
:10037000B0EE480AF0EE680ABDEC028BBDE8F84F1B
:100380000CF0A6BCAFF300800000C0FFFFFFDF4110
:100390002DE9F0432DED028B99460B7F89B0072B99
:1003A00004460F461546129E1AD140F20241836B55
:1003B000984740B9AC4B0093272365692046AB4A68
:1003C000AB49A84799E0B06240F202412046A36BD6
:1003D000984720B9A74B009365692B23EEE7F0629D
:1003E0002A7F3B7F072A08D1092B3DD0072B13D04A
:1003F000A14B009365693123E0E79A4234D0CDE9FF
:1004000002329E4B01939E4B009334236569204634
:10041000964A9C49A84770E0D5F80C80B8F1000FC7
:1004200009D00023CDE90283974B0193974B0093AA
:1004300065693923EBE74146DFED950A47F6FF7022
:100440009FED940AB36A944A0DF050FEF36A414658
:10045000DFED8F0A9FED910A914A92480DF046FE1A
:10046000EB68F361AB68336297F81C80B8F1090F51
:1004700045D0B8F1070F40F03781FB684BB100223F
:10048000CDE90232804B0193874B009365695B2372
:10049000BDE7EA6842B1CDE902237B4B01937B4B78
:1004A000009365695C23B2E7DFED807A95ED027A0F
:1004B000B4EEE77AF1EE10FADFED7D6ACCBF77EEAD
:1004C000677A77EEC77AF4EEE67AF1EE10FA7EDD1F
:1004D0004FF07C53002217EE100ACDE904230EF0F2
:1004E0008DFE744BCDE902010193734B00935D23A4
:1004F000656920465D4A7149A847012086E0287F4A
:10050000072832D1EB6813F5004F09D0654ACDE9D1
:1005100002326B4B01935D4B00936569622376E772
:10052000DFED687A95ED027AB4EEE77AF1EE10FA33
:10053000DFED656ACCBF77EE677A77EEC77AF4EEC7
:10054000E67AF1EE10FA66DD0022604B17EE100A33
:10055000CDE904230EF052FE5D4BCDE9020101937B
:10056000554B009365696323C3E7092812D0666978
:100570000CF026F9054640460CF022F9554BCDE922
:10058000025001933D4B009366232046374A52495F
:10059000B047B2E7EB6813F1800F0AD06FF07F022B
:1005A000CDE902324D4B0193384B009365696723C7
:1005B0002DE795ED027ADFED4A7AB4EE677AF1EE37
:1005C00010FA28D0474B009365696823F6E6B868AF
:1005D0000EF014FE0446D9F800000D460EF00EFE93
:1005E00002460B46204629460EF060FE1CA3D3E9C6
:1005F00000230EF085FF06F1080841EC100B404681
:1006000007A90CF01DFB079BF360002009B0BDECAF
:10061000028BBDE8F083B8680EF0F0FD41EC180BDA
:10062000D9F800000EF0EAFD06F1080441EC100BC9
:10063000B0EE481AF0EE681A2146052007AAFFF727
:100640006BFE07991F22F160052013F00EF80EF0E3
:10065000C3FD01F100410FF0C3F8B061D5E700BF61
:10066000140014001400243F34B50108B7B4010885
:100670003D9B01084BB501080BA3010823B40108F9
:1006800030B40108AA9B010865A201086EB50108F3
:1006900080000038A0002039033A0108800080372C
:1006A000F53901080080FFFF88B501080000003817
:1006B0006F120333C1B50108CDB50108A1B501081A
:1006C000E2B50108000080376F1283320000F03E6F
:1006D000E9B50108F5B5010809B4010801B601083A
:1006E0000000803B06B60108B8F1010F0FD040466C
:1006F00066690CF065F8054601200CF061F8104BB6
:10070000CDE9025001930F4B009385233DE7287FED
:1007100001280ED066690CF053F8054640460CF0EF
:100720004FF8074BCDE902500193074B0093862306
:100730002BE7D9F800000EF061FDC6E9000164E77F
:10074000E4B0010830B4010823B40108000000003F
:100750002DE9F04FC76997B08346209E08910C920F
:10076000129355EC104B8DED000B7FB910200FF05C
:10077000EBFB0246CBF81C0020B9A74BEF21A748A2
:100780000FF0B2FBC0E901770760C760DBF81C30EF
:10079000196859B15A680123584693404A608B60E2
:1007A00010F06CFADBF81C3000221A602B1EB7BF69
:1007B00023F00043002301220193A8BF3360019F6F
:1007C000974BB8BF3260BB4319D142F20F73129AF4
:1007D0001360C7F31303234300F0DB85219B53B958
:1007E000904B21E0904B03930833219A13600398B8
:1007F00017B0BDE8F08F8B4B03930333F5E79DED06
:10080000007B0022002351EC170B8DED0A7B0EF0CC
:10081000B5FF804650B10123129A1360219B13B19A
:10082000824B219A1360824B0393E0E7C7F30A5689
:1008300014AA15A958469DED0A0B10F0A7FC0290CA
:10084000002E76D00B9BA6F2FF36CDF84C80C3F37A
:10085000130343F07F53DDE90A0143F440131946C3
:100860000022744B0EF06AFB65A3D3E900230EF05F
:100870001DFD65A3D3E900230EF062FB04460D467F
:1008800030460EF0A9FC62A3D3E900230EF00EFD62
:1008900002460B46204629460EF052FB04460D4602
:1008A0000EF09EFF002207460023204629460EF048
:1008B0006FFF40B138460EF08FFC22462B460EF0FB
:1008C0005DFF00B9013F162F52D85B4B03EBC70306
:1008D000DDE90A01D3E900230EF05AFF002849D0D0
:1008E000013F00231193149B9B1B5A1E4CBFC3F165
:1008F00001030023079245BF069300230693079345
:10090000002F39DB079B10973B4407930023099383
:10091000089B092B66D8052BC5BF043B0024012486
:100920000893089B023B032B67D8DFE803F02D3ABE
:100930003859DDE914631E4406F23243202BC9BF47
:10094000C3F14003C3F120039F4006F21243D8BF16
:1009500004FA03F006F1FF36C4BF24FA03F347EAB2
:1009600003000EF029FC0122A1F1F873139276E73F
:100970000123B7E71190B6E7069BDB1B06937B428A
:10098000099300231093C3E700230D930C9B002BC6
:1009900056DC012399461A4604930C920CE001237D
:1009A000F3E700230D930C9BFB1803F1010904935B
:1009B0004B46012BB8BF0123DBF81C0000210422A9
:1009C00002F114059D423FD94160584610F016F9D6
:1009D000039000283BD1194B024640F2AF11CEE6FE
:1009E0000123DFE7012400230D9408934FF0FF3328
:1009F0000022994604931223CFE701230D93F5E7D4
:100A000061436F63A787D23FB3C8608B288AC63F14
:100A1000FB799F501344D33FF0BF010807C0010882
:100A20000000F07FACAF0108E7BF010866A2010833
:100A300065A201080000F83F00C1010860C001087C
:100A40000C9B99460493B7E701315200B8E7DBF8F5
:100A50001C30B9F10E0F039A1A606FD8002C6DD0BC
:100A6000002F36DD07F00F02A04BF8054FEA2714E0
:100A700003EBC20393ED007B8DED0E7B17D59C4BF2
:100A800004F00F044FF00308D3E90823DDE90A015D
:100A90000EF036FDCDE90001954D5CB9DDE90E2380
:100AA000DDE900010EF02CFDCDE900012BE04FF057
:100AB0000208F1E7E10709D508F10108DDE90E01B7
:100AC000D5E900230EF0F2FBCDE90E0164100835E4
:100AD000E3E700F007817C42844B854D4FF002082C
:100AE00004F00F02241103EBC203DDE90A01D3E98C
:100AF00000230EF0DBFB0023CDE90001002C40F0C9
:100B0000E580002BD0D1119BDDE90045002B00F0E2
:100B10004C810022774B204629460EF039FE0028F2
:100B200000F04381B9F1000F00F03F81049B002BDE
:100B300000F3E480DDE90A34CDE90034159B002B95
:100B400002DB0E2F40F342820D9A002A40F06782AA
:100B5000099C0025DDF81880B8F1000F0DD0079B27
:100B6000002B0ADD4345069AA8BF4346D21AA8EBDC
:100B700003080692079AD31A0793099B0BB30D9BA0
:100B8000002B00F0A682002C00F0A182294622460C
:100B9000584610F09DF9029A01460546584610F055
:100BA000EDF802990646584610F068F8099B1B1BA1
:100BB000099300F09182099A3146584610F088F95D
:100BC00002900121584610F0C3F8109B0446002BF8
:100BD00000F084821A460146584610F079F9089BC5
:100BE0000446012B03DC009B002B00F07C820026D6
:100BF000236904EB8303186914F07CFAC0F1200028
:100C00001096079B184410F01F0000F09182C0F16D
:100C10002003042B40F38182C0F11C00069B034497
:100C200080440693079B03440793069B002B05DD36
:100C30001A460299584610F0A5F90290079B002B1E
:100C400005DD21461A46584610F09CF90446119BD2
:100C5000002B00F076822146029814F09AFA0028C0
:100C600080F26F8200230A220299584610F028F879
:100C70000D9B7E1E0290002B00F05C820023294613
:100C80000A22584610F01CF8049B0546002B03DC92
:100C9000089B022B00F35E82B8F1000F05DD2946A8
:100CA0004246584610F06EF90546109B002B00F0A6
:100CB000D082696858460FF0A1FF0746002840F02F
:100CC0007F820D4B024640F2EF2158E5E20706D540
:100CD00008F10108D5E900230EF0E8FA01236410B9
:100CE00008350BE74FF002080DE700BF00C101080F
:100CF000D8C001080000F03F60C001082046002273
:100D0000AC4B29460EF0D2FA7E1E08F10108049C75
:100D1000CDE9000140460EF05FFADDE900230EF058
:100D2000C5FAA54B00220EF00BF9A1F15073CDE9E5
:100D30000E010F93002C3BD10022A04BDDE90001F6
:100D40000EF0FCF802460B46CDE90023DDE90E2348
:100D50000EF03CFD002840F05781DDE90E2101F145
:100D60000043DDE900010EF013FD00283FF4E2AE80
:100D7000002425460C9BDDF80CA0DE434FF0000854
:100D8000214658460FF07AFF002D00F0A980B8F1F7
:100D9000000F05D0A84503D0414658460FF06EFF1E
:100DA000294658460FF06AFF9AE03E464C46B1E7A6
:100DB000834B03EBC40353E90201039B1C440D9BCB
:100DC000002B4AD002460B4600207E490EF098FBCD
:100DD000DDE90E230EF0B2F8DDF80CA0CDE90E012E
:100DE000DDE900010EF0FCFC05460EF0F5F90246C7
:100DF00030350B46DDE900010EF0A0F80AF8015B82
:100E000002460B46CDE90001DDE90E010EF0DEFCE5
:100E1000002865D100206C49DDE900230EF08EF832
:100E200002460B46DDE90E010EF0D0FC002840F032
:100E30000D81A24500F0EA8000225E4BDDE90E0143
:100E40000EF034FA00225B4BCDE90E01DDE9000122
:100E50000EF02CFACDE90001C2E7DDE90E230EF019
:100E600025FAA046DDF80CA0CDE90E01DDE9000170
:100E70000EF0B6FC05460EF0AFF9024630350B46D3
:100E8000DDE900010EF05AF80AF8015B02460B4654
:100E9000A245CDE900234FF0000223D1494BDDE903
:100EA0000E010EF04DF802460B46DDE900010EF092
:100EB0008DFC002840F0CA8000204249DDE90E2365
:100EC0000EF03CF802460B46DDE900010EF060FC36
:100ED00070B1C24608F1FF381AF8013C302BF8D047
:100EE000374655E0334B0EF0E1F9CDE90001BDE79F
:100EF000DDE90A34CDE90034159B002BFFF628AE5E
:100F00000E2F3FF725AE2E4B03EBC70393ED007B6F
:100F10000C9B002B8DED047B02DAB9F1000F64D03D
:100F2000DDF80CA0DDE90045DDE904232046294673
:100F30000EF0E6FA0EF054FC06460EF04DF9DDE92F
:100F400004230EF0B3F90246204606F130040B46A6
:100F500029460DF0F3FF0AF8014B039C02460B46AD
:100F6000AAEB0404A14540F082800DF0E9FF04469D
:100F70000D46DDE904230EF029FC002865D120464A
:100F80002946DDE904230EF0F9FB08B1F3075CD430
:100F9000029958460FF072FE002301378AF800309C
:100FA000129B1F60219B002B3FF421ACC3F800A0D3
:100FB0001DE400BF0000244000001C40000014405D
:100FC00000C101080000E03F0000F03FA24B03EB2E
:100FD000C70393ED007B0C9B002B8DED047B9FDA08
:100FE000B9F1000F9CDC7FF4C3AE00229B4BDDE91E
:100FF00004010EF05BF9DDE900230EF0DDFB044691
:1010000000287FF4B5AE3E462546B4E0DDE90A345B
:10101000CDE90034159B002B01DB0E2FD6DD089A9D
:10102000012A36DC139A82B303F23343099CDDF8BC
:101030001880069A012158461A440692079A1A44C3
:1010400007920FF085FE054686E53E4653469A46D2
:1010500013F8012D392A06D1039A9A42F7D130228A
:10106000039901360A701A7801321A7038E70022A3
:101070007B4B0EF01BF90022002304460D460EF0B8
:101080007DFB00283FF450AF82E7149BC3F1360389
:10109000CCE709F1FF34099BA34208DBB9F1000F4B
:1010A000A3EB04040EDBDDF818804B46C1E7099B77
:1010B000109AE31A0994DDF8188000241A444B466C
:1010C0001092B6E7069BA3EB09080023B1E7029E46
:1010D00071E5099A029970E5029672E5089B012B69
:1010E00017DC009BABB9019BC3F313039BB9019BB6
:1010F00023F00046360D360536B1069B0126013336
:101100000693079B01330793109B002B7FF470AD70
:101110001096012075E50026F6E73FF486AD1C33F6
:10112000069A1A4498440692079A1A4407927CE554
:101130000346F4E7049B002B2BDC089B022B09DC05
:1011400027E0B9F1000F1DDC089B022B1ADD3E469B
:10115000CDF81090049B002B7FF40CAE21460522A5
:1011600058460FF0ADFD01460446029814F011F800
:1011700000287FF7FFADDDF80CA0312301360AF817
:10118000013BFBE50D9B3E46CDF81090002B7FF414
:1011900083AD039F2146029813F01FFF039B00F1CC
:1011A0003009049A07F8019BFB1A9A4240F3CB805E
:1011B00000230A22029958460FF082FD0290E9E7C7
:1011C0002A6905F10C010C300232920013F0F0FE96
:1011D0000122394658460FF0D5FE039BA846054626
:1011E00003F1010ADDE9032313440793009B03F095
:1011F000010309930AF1FF3321460298049313F087
:10120000ECFE4146069000F13009029813F0C1FF50
:101210002A462146074658460FF020FFC26801467D
:1012200002B358460FF02AFD002F3ADA0122029944
:1012300058460FF0A7FE2146029013F0AAFF00289F
:1012400003DC29D119F0010F26D0B9F1390F1DD1D6
:1012500032E02846C1E700BF00C101080000144089
:10126000000024400A90029813F093FF0A990C9012
:1012700058460FF003FD0C9A5ABB089B53B9099BC3
:1012800043B9B9F1390F17D0002F05DD069B03F1E3
:10129000310901E0002F2ADADDF810A00AF8019BDD
:1012A0006EE5089B3B4304D1009B03F00103002B38
:1012B000BCD0B9F1390F36D1049F392307F8013B6F
:1012C000BA46013F1AF8013C392B5AD001333B7022
:1012D00056E5002F06DB089B3B4306D1009B03F03D
:1012E000010313B9002AA1DCD6E7002AE1DC079B41
:1012F00057460AF8019C53452ED000230A22029932
:1013000058460FF0DDFCA84502904FF000034FF067
:101310000A02414658460BD10FF0D2FC80460546E2
:101320000AF1010A66E7DDF810A009F10109B5E745
:101330000FF0C6FC2946804600230A2258460FF0CB
:10134000BFFC0546ECE7049B4FF00008002BCCBF28
:101350001F460127039B1F440122029958460FF0A4
:1013600011FE2146029013F014FF0028A8DC02D1E0
:1013700019F0010FA4D1BA4617F8013D302BFAD06D
:10138000FEE4039BBB429BD13123039A01361370C9
:10139000F6E4219B002B7FF425AA014BFFF744BA0A
:1013A000E7BF01080000000051EC100BC1F30A5325
:1013B0002DE9F041A3F2FF350C460646132D32DC31
:1013C000002D20DB384B0F4643FA05F801EA0803ED
:1013D00003432DD032A3D3E900230DF0B1FD002249
:1013E00000230EF0F3F940B1002C03DA4FF4801320
:1013F0002B411F4427EA080400262346324643ECCB
:10140000102BBDE8F08126A3D3E900230DF098FD51
:10141000002200230EF0DAF90028EED0002C2ADB9F
:1014200000263446E9E7332D06DDB5F5806F1BD085
:1014300041EC100BBDE8F081A3F213434FF0FF37EE
:10144000DF400742F4D016A3D3E900230DF078FD66
:10145000002200230EF0BAF90028CED0002C33462B
:1014600010DB23EA0706C8E702460B460DF068FDCD
:1014700041EC100BDEE724F0004426430DD14FF081
:101480000044BAE7142D06D0C5F134050122AA4064
:101490001344B342E5D20134E3E70026034CACE742
:1014A0009C7500883CE4377EFFFF0F000000F0BF12
:1014B0000348044B834202D0034B03B118477047E3
:1014C000101200201012002000000000064B0749F7
:1014D000C91A891048BF0131491003D0044B0BB120
:1014E00001481847704700BF10120020101200205A
:1014F0000000000010B5064C237843B9FFF7D8FF71
:10150000044B13B10448AFF300800123237010BDD6
:10151000A63C00200000000034C2010808B5054BBD
:101520001BB105490548AFF30080BDE80840FFF74F
:10153000CDBF00BF000000001032002034C20108FF
:10154000A3F5803A704700BF174B002B08BF134B21
:101550009D46FFF7F5FF00218B460F461348144ABE
:10156000121A13F0C6FC0E4B002B00D098470D4BFF
:10157000002B00D098470020002104000D000D48EA
:10158000002802D00C48AFF300800FF093FA20003F
:10159000290010F029FC0EF0C5FC00BF0000080077
:1015A00000000000000000000010002010120020C9
:1015B000E03C00200000000000000000F0B5044600
:1015C00085B0194811F020FA0546012D174828D199
:1015D00011F081FAB4F900000DF0FEFD0646B4F9F1
:1015E00004000F460DF0F8FDCDE90201B4F9020048
:1015F0000DF0F2FD3B46CDE9000132460C480FF0FC
:1016000075F90C4B1D70084811F0FEF9044630B90D
:10161000084D2B781BB108480FF07AF92C7005B0F3
:10162000F0BD11F05BFAEEE7B4560108E45601088C
:10163000E0540108A73C00204256010813B500F011
:1016400065FC0446C8B9B3EE090A00F089FC012222
:1016500023461146104604F047FF2246094901205F
:1016600003F05EF9FF2802464FF0010108D023463F
:101670000846CDE9001104F0C7FE204602B010BDB7
:101680000C46FAE7C91D010810B5084C00F018F81F
:10169000204611F020FA064802F0ECFC00F02CF88D
:1016A0002046BDE8104011F019BA00BFE456010809
:1016B000B45601080122014B1A707047A83C002063
:1016C00008B508480FF024F907480FF021F907483A
:1016D0000FF01EF906480FF01BF9BDE80840054859
:1016E0000FF016B9F45401082455010854550108A7
:1016F00083550108B055010807B5FFF79FFF034662
:1017000048B10C480FF004F933210B4803B05DF8E1
:1017100004EB10F02EBF094AC8211070CDE900007B
:10172000074A084806F016F8074803B05DF804EBCE
:101730000FF0EEB8DC550108FE550108A83C00206A
:10174000B5160008283200201056010810B5274CA5
:1017500003F06CFE04F094F8236F23F0070343F0CA
:101760000303236711F01CFA214B00209B6ADB0165
:101770005EBF4FF480321F4B9A62D4F8203123F0C1
:10178000070343F00203C4F82031D4F8283123F0D2
:10179000070343F00203C4F82831D4F8403123F0A2
:1017A000030343F00203C4F84031D4F8603123F05E
:1017B000030343F00203C4F86031D4F8403223F04D
:1017C000030343F00203C4F84032D4F8003223F09C
:1017D000070343F00203C4F80032D4F8083223F0C0
:1017E000070343F00203C4F8083210BD0080005024
:1017F0000040005A0060005A30B5234D9DB008AC3F
:101800000FCD0FC495E80F0084E80F002C220021B3
:1018100011A813F06EFB1D4B012410935623129355
:101820000523159306230E2200210DF112008DF8D9
:101830004540179313F05DFB4FF47020144B08AA3A
:10184000CDE902030B238DF810300C238DF81130F5
:10185000104B1148059320230693104B02A90093C7
:1018600010AB8DF81D4005F069FA044618B17C21D3
:101870000B4810F07EFE00214FF4E13010F04EFBDB
:1018800020461DB030BD00BF7C5601080000015B42
:101890003C00015BA93C0020AC3200204832002013
:1018A0004B560108014811F068BA00BFAC32002065
:1018B00008B5044811F08EF8BDE80840024811F060
:1018C00089B800BFB45601089C56010808B5054800
:1018D00011F0FEF8044811F0FBF8BDE80840034899
:1018E00011F0F6B8FC560108E4560108CC56010880
:1018F000082808B504D00FDC022809DC002809DD1F
:10190000012304220921022004F0EEFD002008BD7D
:101910000428F5D0D82106E02028F1D0402807D0AF
:101920001028F7D1B921044810F023FE0E20EEE76D
:10193000012304220821E6E7FC9201088022014BE2
:101940001A64704700E0035070B514460D4640F02D
:1019500080010A48FFF7F2FF11F06CF9074E2544A9
:10196000AC4204D18022064B00201A6470BD0021D5
:10197000304611F05FF904F8010BF1E700000A505E
:1019800000D0035038B50C46084D00F07F012846C2
:10199000FFF7D4FF11F04EF92146284611F04AF91D
:1019A0008022034B00201A6438BD00BF00000A509B
:1019B00000D0035070B5264C8EB0264601AD0FCE38
:1019C00014340FC50FCC06AD0FC594E80F0085E8A1
:1019D0000F00204B0121039306AB05934FF4807356
:1019E0005720ADF81C3003F0D1FA01213A2003F062
:1019F000CDFA002304220321022004F075FD022108
:101A000000230846012204F06FFD00230422012177
:101A1000022004F069FD012304220721002004F0C4
:101A200063FD0D4801A904F097FB0C4B0C4A002004
:101A3000C3F8CC244FF00212C3F8C424A2F58032BC
:101A4000C3F8C8241C22C3F8B4240EB070BD00BF74
:101A5000B0930108A05A320000000A5000C00350A1
:101A60000200030010B52DED028B9FED188AB7EE32
:101A7000007AC8EE007A77EEC77A9FED157AF4EE19
:101A8000C77AF1EE10FA82B019DCF5EEC07AF1EE09
:101A900010FA17D4FCEEE77ACDED017A9DF80440F8
:101AA00019202146FFF76EFF631C00EE103AB8EED6
:101AB000C00A88EE000A02B0BDEC028B10BDF0EE49
:101AC000477AE7E7DFED037AE4E700BF00007A44F6
:101AD00000007F430000000013B5044601211C20D4
:101AE0000DF10702FFF730FF9DF8073003F01803F0
:101AF000102B8DF8073012D009D89BB1082B14D0C9
:101B00000B484FF4AA7110F034FD012005E0182BAA
:101B1000F6D14FF068530020236002B010BD4FF0A3
:101B20006653F8E74FF06253F5E74FF06453F2E77E
:101B30005693010813B5044601211B200DF107023D
:101B4000FFF702FF9DF8073003F01803102B8DF804
:101B5000073011D009D88BB1082B11D0094840F2B9
:101B6000791110F006FD012004E0182BF6D1064B88
:101B70000020236002B010BD044BF9E7044BF7E7E7
:101B8000044BF5E75693010800007A3D0000FA3C4B
:101B90000000FA3B00007A3C01212DE9F0430022CD
:101BA00085B08046084610F0ABFA9FED6D0AFFF74E
:101BB00059FF052010F009FA002010F08EFA68464F
:101BC000FFF7B8FF322005F08BFD40211A20FFF708
:101BD000D9FE44216A20FFF7D5FE78212320FFF7A4
:101BE000D1FE052005F07CFD0221722001AAFFF73D
:101BF000ABFEBDF804305BBA9BB2B3F5FC7FF0D30B
:101C000078220021232010F0A4F90221722001AAD9
:101C1000FFF79AFE4FF000090C23BDF804704C4604
:101C20007FBABFB2B7FBF3F74D464E461FFA89F3B2
:101C3000BB4278D396FBF7F607EE906A9DED007AEB
:101C4000F8EEE77A95FBF7F567EE877AC8ED007A4C
:101C500007EE905AF8EEE77A94FBF7F467EE877A8E
:101C6000C8ED017A07EE904AF8EEE77A67EE877AD8
:101C700001AAC8ED027A02211320FFF765FE9DF943
:101C800004309DF8058001AA0221152048EA0328A6
:101C9000FFF75AFE9DF904309DF8057001AA022154
:101CA000172047EA0327FFF74FFE002E9DF9042077
:101CB0009DF80530B8BF0336002DA8EBA606B8BFC7
:101CC0000335002C43EA0223B8BF0334C6F30721CF
:101CD0001320A3EBA404A7EBA505FFF753FEF1B275
:101CE0001420FFF74FFEC5F307211520FFF74AFE2A
:101CF000E9B21620FFF746FEC4F307211720FFF7CD
:101D000041FEE1B21820FFF73DFE402200216A208B
:101D100010F01FF900221146104610F0F1F90020D2
:101D200005B0BDE8F08301AA0C217420FFF70CFE7A
:101D30009DF90A209DF80B3009F1010943EA0223BD
:101D40001E449DF90C209DF80D3043EA02231D44EA
:101D50009DF90E209DF80F3043EA02231C4465E7ED
:101D600000007A44B7EE007AC7EE007A9FED057A5C
:101D7000C0ED157AC7EE007A80ED140AC0ED167A30
:101D8000704700BF35FA8E3CF0B52DED048B0F4641
:101D900000F15C050446D0ED098A90ED0A9AD0ED79
:101DA0000B9A85B028461646B0EE408A10F05DFBCF
:101DB000002F48D094ED097ADFED386AB4EEE67A68
:101DC000F1EE10FA3FDBDFED367AB4EEE77AF1EEB2
:101DD00010FA38D894ED0A7AB4EEE67AF1EE10FAF9
:101DE00031DBB4EEE77AF1EE10FA2CD8F5EEC09ABA
:101DF000F1EE10FAF1EE688AB1EE490A04F16807D3
:101E000025DB0FF06BFB8DED010AB0EE680A0FF0D9
:101E100065FBB1EE400A28463A4601A98DED020A5B
:101E20008DED038A10F059FB284610F011FB0EB916
:101E300000236366D4ED147AB6EE000A284680EEDD
:101E4000270A10F02AFB05B0BDEC048BF0BD0FF0A3
:101E500045FB9FED149A39EE400A8DED010AB0EE74
:101E6000680A0FF03BFB38EE098AB1EE400A01A880
:101E70008DED020A8DED038A10F0EAFA3A46284603
:101E800001A910F02AFB284610F0E2FAD4ED187AE6
:101E9000F1EE677AC4ED187AC9E700BFDA1B7CBFA0
:101EA000DA1B7C3FDB0F494070B5044600F052F866
:101EB0000128054626D104F12406304600F0D6F864
:101EC0003146204604F1440610F04BFA304600F04B
:101ED000DBF8D4ED117AF1EE677AC4ED117AD4ED26
:101EE000127AF1EE677A31462046C4ED127A10F08C
:101EF00054FA29462046BDE870409FED030A0022AF
:101F0000FFF742BF70BD00BF000000007FB5022593
:101F10000E4E0F48357010F002FA10F032F80446F9
:101F200060B90DF1030010F02CF9044630B9032319
:101F300001A83370FFF730FE044610B10FF0FDFF2B
:101F400000252046357004B070BD00BFC93C00209C
:101F5000C4320020014B1878704700BFC93C0020F4
:101F600070B501212DED028B0223B0EE408A1C4E8C
:101F700082B000220846337010F0C2F8B0EE480A72
:101F8000FFF770FD174D082085ED000A10F02DF8C1
:101F9000032010F01AF8002010F08CF8002010F048
:101FA0009CF8322005F09CFB0F4C0021012010F022
:101FB000C0F801A810F0CBF895ED000A204610F00B
:101FC000CDF995ED000A2046FFF7CCFE204610F033
:101FD00000FA0123337002B0BDEC028B70BD00BF6C
:101FE000C93C002040330020C43200201A4AD36B81
:101FF0006BB392ED0C6A9FED197A07EE903A26EEDC
:10200000076AF8EE677AC6EE276A92ED0D6AFDEE72
:10201000E66A26EE076A16EE903AC6EE276AFDEEED
:10202000E66A038016EE903AD2ED0E6A66EE876A93
:1020300086EEA77ABDEEC77A438017EE103A83800A
:1020400000231363536393630023D36370470380B8
:1020500043808380704700BFC432002000007A4470
:102060000148FFF721BF00BFC4320020054A1278A3
:10207000012A04D0002202604260826070470FF0A3
:10208000B9BF00BFC93C0020054A1278012A04D01C
:10209000002202604260826070470FF0DBBF00BF29
:1020A000C93C002008B5094B1B78012B01D000204A
:1020B00008BD10F058F8064A136801331360002871
:1020C000F5D0044A136801331360F1E7C93C0020DE
:1020D0003C330020383300209FED060A00F10C034A
:1020E000B0EC017AF1EC017A984207EE270AF7D1B9
:1020F000704700BF000000000122024BC3F8A0207F
:10210000704700BF00D003500122024BC3F8A0204B
:10211000704700BF00E0035070B5404D88B001AC7F
:102120000FCD0FC495E8070084E8070001240121C2
:102130003A2002F02BFF3A4E0121292002F026FF1F
:10214000384B304601A903938DF8124004F01CFC73
:10215000234604220321022004F0C6F9022122466C
:102160000846002304F0C0F9234621460422022039
:1021700004F0BAF9042200212346022004F0B4F945
:10218000294D2A4B4FF44870C5F834374FF00213ED
:10219000C5F8303703F58033C5F838371C23C5F848
:1021A000203705F04BFC1420FFF7AEFF05F046FC8E
:1021B0002320FFF7A1FF05F041FCB9213046FFF7CE
:1021C000A3FF10F051FDFFF797FF002303211A46EC
:1021D000022004F089F9002302211A46084604F07F
:1021E00083F9234621460022022004F07DF90022D3
:1021F00023461146022004F077F9304604F098FB9C
:1022000000212920C5F83417C5F83017C5F838174C
:10221000C5F8201702F0BAFE08B070BDE4930108BB
:1022200000C0055000127A0000C0035002000100F7
:102230000348044A0449121A921010F087B900BFEB
:1022400058C4010858C40108E03C002008B500F05B
:102250002FF8FFF7EDFF124B12498B4212D30020EB
:10226000114B12498B4218D3FFF76EF9186850F8DA
:102270002240586840F82240013298688242F5D3E3
:102280000C33EAE70022F8E71C6844F82200013228
:102290005C68A242F8D30833E4E70022F8E700BF05
:1022A0003CC2010848C2010848C2010848C20108EE
:1022B0004FF480414FF0FF30114B124A10B59A6035
:1022C000D3F8882042F47002C3F888200E4A916641
:1022D0000E4901F5005210660D4850660220C3F801
:1022E000D000BFF34F8FBFF36F8F01244FF4403303
:1022F0000848C0F88041D36004600B6110BD00BF86
:1023000000ED00E000000008009000500080004454
:10231000F7FF370000E100E0014B1868704700BF8D
:1023200008100020084B1B6F03F00703022B04D09A
:10233000032B05D0012B05D0FEE7044B186870472E
:10234000034BFBE703487047008000500810002053
:1023500010100020002D310108B5FFF7E3FF054BF9
:102360001B6FC3F303330133B0FBF3F0024B186070
:1023700008BD00BF008000500410002000487047D6
:1023800000B4C404014B1868704700BF101000204F
:10239000054B1860054B1B6F03F00703032B01D19E
:1023A000FFF7DABF704700BF101000200080005018
:1023B00000487047002D31014FF0B4439868C0F3D6
:1023C00004400C280AD8DFE800F00B0909090909C4
:1023D000072119091B1D1F000F4870470020704777
:1023E0009B6803F04073B3F1807F11D0B3F1007F9D
:1023F00010D00A4A002B08BF1046704708487047A3
:1024000008487047084870470848704708487047B0
:102410000848704708487047405DC60000093D0005
:10242000C0EA210180BA8C010048E801005A62022A
:102430000024F40080841E0040420F00014B186805
:10244000704700BF0C1000200346054A054910687C
:1024500003448B428CBF4FF0FF301360704700BFC6
:1024600014100020000004204FF0BA420123054858
:1024700002F580514B60086203490968D160034A44
:102480001370704701000C1F18100020CA3C002078
:102490004FF0BA41074BCA681A600123064A5360DD
:1024A0004B6813F00203FBD14FF0FF311162034A76
:1024B00013707047181000200020005DCA3C0020F7
:1024C0004FF0BA42D369126A10B5134013F0F850B6
:1024D0001EBF0120114A1070DC070ED54FF0BA4123
:1024E0000A695007FCD50E4A4C69106820441060F8
:1024F00088695168014401205160590341BF08496E
:102500000A6802F180720A601A0341BF04494A68EE
:1025100002F180724A60034AD36110BDCB3C0020B7
:10252000443300200020005D0023044A0449137056
:10253000044A05481360054A00F096B9CB3C0020D8
:10254000912400085033002069240008C1240008A9
:1025500008B500F0DBF94FF0BA430A4AD9691368AD
:1025600041F201500B4313604FF47D32064BDA61A8
:10257000064B1A78002A4FF0000208BF10461A7066
:1025800008BD00BF503300200020005DCB3C002080
:1025900009230E4A70B5C0F810311368054601339F
:1025A0000E461360FFF7D4FF044660B900F0A8F9A7
:1025B0004FF48A722846064900F086F91EB1BDE83C
:1025C0007040FFF7C5BF204670BD00BF4C330020F0
:1025D0006400005D0729F8B505460C4610EE107A38
:1025E00010EE906A04D940F2071104480FF0C1FFC1
:1025F00005EB840325F824705E80F8BD0094010883
:102600002DE9F84F042980460D4693469946BDF8BA
:102610002840BDF82C70BDF83060DDF838A004D932
:102620004FF4917134480FF0A4FFB4F5806F04D9D2
:1026300040F2231130480FF09CFFB7F5806F04D9AA
:102640004FF492712C480FF094FFB6F5806F04D9C7
:1026500040F2251128480FF08CFF0D9B03F5006315
:10266000B3F5805F04D34FF4937123480FF081FFDB
:102670000AF50063B3F5805F04D340F227111E48CA
:102680000FF077FF0F9B03F50063B3F5805F04D372
:102690004FF4947118480FF06CFF184B0F9A013EDD
:1026A00003EA0242C6F3090616430D9A013C03EA07
:1026B0000A4AC4F3090403EA02431C43013F4FEAF8
:1026C000093303F44053C7F309071C4347EA0A07D9
:1026D00008EB051319F0040F05F10205C3E90A76AA
:1026E00018BF44F480442B0108EB05156C6048F8D2
:1026F00003B0BDE8F88F00BF009401080000FF0F91
:102700002DE9F041072905460E4614461F469DF85F
:10271000208004D94FF4B5710A480FF02AFFDDE993
:10272000062324051A43B8F1000F01D044F00044F9
:102730000C2303FB0651C1E92C72C1F8B840BDE877
:10274000F08100BF009401082DE9F04107290646F9
:102750000C46154698469DF8187004D940F27D1134
:1027600021480FF006FF013DABB2B3F5806F04D3F3
:102770004FF4BF711C480FF0FCFEB8F1070F04D9ED
:1027800040F27F1118480FF0F4FE072F04D94FF4E0
:10279000C07115480FF0EDFE0C21079B06EBC4023B
:1027A00045EA0335089B15671B03536701FB086265
:1027B000B845D2F8B8004FEA440406D10323A34039
:1027C0000343C2F8B830BDE8F0810123A3400343BE
:1027D000C2F8B830022201FB0766D6F8B830A24032
:1027E0001343C6F8B830EEE700940108F8B50021AD
:1027F0000C250446D0F8743200F50976DFF854C091
:10280000D0F868028B4217DA05FB030393F8BB206C
:10281000002142F0800283F8BB20FFF7B9FE4FF49D
:102820008A72D4F86C3283F00103C4F86C3202FB74
:102830000343C4F86832F8BD05FB0107D7F8B82098
:1028400056F804EF02EA0C0242EA0E02C7F8B8207A
:102850000131D7E70000FFFF024B03C883E8030004
:10286000002070475433002038B50F4C2378CBB983
:102870000E4B0F4D19600F4B28601A604FF08042CD
:102880000D4B0E489A66FFF7E7FF4FF400420C4BE2
:102890001A602B6803B19847012300202370094B6D
:1028A000187038BD1220FCE7CD3C002060330020BA
:1028B000643300205C33002000900050543300202B
:1028C00000E100E0CC3C00200B4B10B51B7873B14D
:1028D0000A4B1B786BB1002392089A4201D1002069
:1028E00010BD50F8234041F823400133F5E7112093
:1028F000F6E70E20F4E700BFCD3C0020CC3C0020E2
:102900000122014B1A707047CC3C0020064B1B780B
:1029100043B14FF0BA4213695B07FCD5034A137801
:10292000002BFCD1704700BFCD3C0020CC3C0020E8
:1029300008B5044B1B6823B1984710B10022024B25
:102940001A7008BD5C330020CC3C00200048704762
:10295000683300200048704768330020F0B5044613
:1029600001258C4205D88D4203D8002015601C60DB
:10297000F0BD0020DFF828C01CF8017BB4FBF7F69F
:1029800007FB164EBEF1000F05D1B44207FB05F55B
:1029900004D03446E5E701300B28EDD10120E5E70E
:1029A000589401082DE9F04F174687B004460D46AC
:1029B0009846FFF7CBFF17F1800F064602D1B8F11A
:1029C0007F0F04D0A02D12D82544A54203D10020AA
:1029D00007B0BDE8F08F94F900309F4202DD277008
:1029E0000134F2E79845B8BF84F80080F8E74FF06B
:1029F000000940F20A2A3B463A46002130460FF0D1
:102A0000B9FD43464246012130460FF0B3FD4B4627
:102A10004A4649463046CDE90199CDF800A0FFF776
:102A20006FFE40F20B232F4A0121CDE900323046E0
:102A300040F2D5122C4BCDF80890FFF761FE012132
:102A40002A4B40F2D512CDE9013130460221284B04
:102A5000CDF800A0FFF754FEB5F5006F2B4628BF58
:102A60004FF4006323F0030B4FEA5B0A1FFA8AFA64
:102A70002246002130460593CDF800A005230FF033
:102A80009FFD0523224601213046CDF800A00FF01E
:102A900097FD0223059A002130460093CDE9019964
:102AA0000123C2F38F02FFF74FFE01213046FFF7EB
:102AB0006FFD00288CD1A5EB0B059F2D5C44CBD876
:102AC000002D84D0254414F9013B9F4204DD04F815
:102AD000017CA542F7D17AE79845B8BF04F8018C8C
:102AE000F7E700BF0000A021000102200000B02194
:102AF000000103302DE9F04F036895B00593436A58
:102B0000066D0693836A42680793C36A856B0893D0
:102B1000036ED0F814B00993C36DD0F83C900A93BB
:102B20008369DFED576A0B9383680BFB01FA0C9303
:102B3000036B0D93436C00694B43F41A24EAE4746D
:102B4000F71A9B1B234453430744AF42A8BF2F46A9
:102B5000019302FB05F3002502FB00F1119302FB38
:102B600004F30E9713911293059B9D4203DB002003
:102B700015B0BDE8F08F00200B9B129E53440493C8
:102B8000584574DB0199139B01351944DA440191CE
:102B9000EAE74FF000080C9B734402930D9B6344DB
:102BA0000393904547DB0137964494440E9B9F4224
:102BB000EFDBB9F1000F0BD039F81030F2EE677A85
:102BC00007EE103AB2EE477A77EE277AF3EE677A9D
:102BD000089BF2EE677A33F81030013007EE103AB6
:102BE000B2EE477A67EE277AF3EE677AF2EE677A0B
:102BF000FDEEE77A17EE901AADF80830099B1944FC
:102C0000069B9942B8BF1946079B9942A8BF19462F
:102C100007EE901AF8EEE77AF3EE677AF2EE677A4B
:102C2000FDEEE77A17EE901A049B03F8011B04935C
:102C3000119B1E44A4E7029BF2EE677A13F9011B75
:102C400008F101080293039B0F9113F9011B1091E6
:102C500003930F990A9B1944109B594307EE101ACE
:102C6000B8EEC77A47EE267AF3EE677A99E740F234
:102C70000003B446274607EE903ADDF804E095E7F6
:102C8000000000382DE9F04F2DED048B436CD3B0DC
:102C90002B93836D82463793436D90ED178A38935B
:102CA000036DD0F840901F93C36C90F84860149364
:102CB0008368C56B3993036B1C913A93C36A3B934A
:102CC00040F20003ADF842318369469300235193EB
:102CD000FFF740FE04462EB91F9B149A13431CBFF6
:102CE00021235193379B012B02D1389B012B07D015
:102CF000212351931C9B002B40F099805198F9E3BC
:102D00001C9B002B40F09380519B002BF6D1DAF8EE
:102D1000043020460F93DAF81430DAED188A09935C
:102D2000DAF80C30BAEEE88A2C93DAF83430B3EEE5
:102D3000488A2093DAF81C302D93DAF800303C935F
:102D4000DAF810301593DAF838301693DAF82030C4
:102D500017930FF014FD209A2C9B002DA3EB020378
:102D6000149A134493FBF9F30D93DDE91532A3EBA9
:102D700002031F9A13442B9A93FBF2F3179A499379
:102D8000099B02FB03F30F9A1393169B02FB03F3B9
:102D90002493249A209B02FB03F30F9A3293159BF2
:102DA00002FB03F323932B9B02FB03F34A93239B26
:102DB000159A03FB09F34B93BDF824301E9308BF0B
:102DC000012343930DF5A17318BF2B4647932C9B0A
:102DD00053430F9A53434C93179A2D9B5343099A8D
:102DE0005343409300230E9340F2002309EE103A20
:102DF0000E9B179A93422EDB1C9B002B3FF47EAF59
:102E0000FFF7A6FB5190002840F074833C9B2D995E
:102E100009985943179B9AF9242059439AF9283065
:102E20004143DAF81800FFF7BDFD519066E7DDE990
:102E3000393213433B9A2B431343DA0707D5212337
:102E4000519340F2031182480FF093FB56E7519BD8
:102E5000002BF6D15BE70E9B2B9A1F995A431F9BC1
:102E60001698D31A8A1A22EAE2721892159A1899B9
:102E7000D21A9042D4BFC1EB0001C1EB0201002B7A
:102E800027DB0E98499D169E9642D8BF284626906D
:102E9000269A0E98121A01320A920F9A4A431899EA
:102EA0003192379A01FB02330A993F93DDE94A32A6
:102EB0000129D8BF1346239A2A931343459300232D
:102EC0000C930C9B2D9A934206DB269B01330E93A9
:102ED0008EE70E9A2692DBE70C9B149A09FB03F30C
:102EE000991AD31A2C9A209823EAE373521A904223
:102EF000D4BFC3EB0000C3EB0200002908907DDBC8
:102F0000209991427ADCDDE90C12521A571C002AF2
:102F100079D00A9A012A7CDD814563D044DD012FF6
:102F2000A9EB000B65DC01260D9A0B92BE423246DE
:102F3000A8BF3A464892139A169972432F92721E6E
:102F400022922F9AB2F5006F229AB8BF00222E92D9
:102F500001324E92189A03FB01220F994A43249999
:102F600011434D910A990129D8BF394689B241913F
:102F70003A998A1842920C9A149902FB09F2521A51
:102F8000389903FB01232F9A2593139BB2F5006F09
:102F9000B8BF1346339300231193119B489A934271
:102FA0003ADB0B9B01338BE7089A089992FBF9F205
:102FB00009FB121B1646BBF1000F0ED0012F06F1C4
:102FC0000106A9EB0B0B0ADD0A465A4406FB09F180
:102FD00091421CBF2822519201E0012F0CDC0D9A76
:102FE0000B92A3E7012F14DD4A4601264FF0000B98
:102FF000ECE74A460126E9E7089AE7E701270C9A39
:103000000B92012602E03E460D9A0B924FF0000B08
:103010008CE70D9A0B92F4E7119BBB42C4BF2823A7
:103020005193119BFB1A93FBF6F206FB1233002B14
:1030300018BF0132012A0A9B19920BD1012B47DDDF
:1030400000231093109A089B1344199A534309E0E4
:1030500063940108012B38DCBBF1000F32D1089BCF
:10306000CDF840B027934E9A199B159953433D9341
:10307000199B259A73433093109B013B002B3E9381
:10308000CCBF4FF48773002344933F9B01FB023373
:103090000F9A17995343119A1D930C9B13440E9A40
:1030A00001FB0323099A53431B9300232893289B76
:1030B0003C9A934211DB119B01331193259B4B44A6
:1030C00025936AE728235193C9E7CDF840B0B9E7C3
:1030D000089B279300231093C5E72F9BB3F5006F40
:1030E00014DB139BB3F5006F10DB1B9B002B4FF021
:1030F0002803519303DA099B002BC0F2AD81309B6A
:10310000DDF888801A93139B129314E01B9BDDF863
:10311000B880002BBCBF28235193099B002B3D9BFB
:103120001A93339B129301DA28235193129B002B9D
:1031300001DA28235193DDE931321343459A1343D1
:103140004D9A13431D9A1343DB0700F18C81319B89
:1031500003EBD3735B1029932A9B03EBD3735B10B0
:103160003493239B03EBD372329B521003EBD37344
:103170005B103693249B03EBD3735B1035930123D1
:10318000204621934F920FF070FA219B0125002BCE
:1031900014BF0523012351AAD4F8680206924F9A5E
:1031A000BDF8A4100492349A02910392BDF89C20B9
:1031B00034910192419A1D990092399A05950A44D9
:1031C00000214F930FF079FA51ABCDE90553359BB0
:1031D000BDF820200493369B01920393349B29462B
:1031E00002931E9B429A0093D4F868024F9B0FF003
:1031F00064FA51AB0193439B479A00930223D4F89E
:10320000680219460FF092FA51AB01931E9B0321FD
:1032100000933B9A0223D4F868020FF087FA51AB6F
:10322000CDE90553099B1B990493129B469A03937E
:103230001E9B0A440293BDF8283004210193BDF877
:1032400068300093D4F868022B460FF036FAB0EEDF
:10325000490A0021D4F868020FF0A6F9219B002B3F
:1032600000F00C81F0EE480AB0EE480A2946D4F886
:103270006802FFF7AFF9B8EEE80A0025B3EE400A9E
:103280000221D4F868020FF08FF92046099951AA5B
:103290000FF0B8F951AB41212046994A01930095AE
:1032A0004EF62C430FF0EDF920460A9951AA0FF083
:1032B000A9F92046199951AA0FF0A4F920460899B6
:1032C00051AA0FF09FF92046299951AA0FF09AF9B7
:1032D00051AB40F2CD112046CDE90053894A8A4BCB
:1032E0000FF0CFF951AB40F2D711884A2046CDE913
:1032F00000532B460FF0C5F920460FF029FA0222A1
:10330000294620460FF03FFA0222012120460FF005
:103310003AFA20460FF01CFA0A9B012B04DC01222A
:10332000294620460FF02FFA109B002B04DD0222C5
:10333000002120460FF027FA219B002B00F0A680E9
:10334000109B4A21023B129351AB0193002320466C
:1033500000936F4A449B0FF094F9129B51AD013BCF
:103360001A93129B40F2CD11002B4FF04F63204671
:103370000093684ACCBF4FF48773002301950FF088
:1033800080F9B8F1000F0FDD2A46414620460FF0C4
:1033900039F900222046CF231146019500920FF003
:1033A00070F920460FF0D4F94FF0000851AD4346B4
:1033B00041212046524A0195CDF800800FF061F975
:1033C0001A9B012B65D119462A4620460FF01AF99F
:1033D0004346424641462046CDE900850FF051F96B
:1033E00020460FF0B5F90222414620460FF0CBF9F6
:1033F00020460FF0ADF90222042120460FF0C3F958
:103400000A9B012B04DD0122002120460FF0BBF9AD
:1034100020460FF09DF90422204611460FF0B3F923
:103420000122204611460FF0AEF904220221204667
:103430000FF0A9F90422032120460FF0A4F9204639
:103440000FF086F9519B002B40D01C9B002B3FF4C2
:1034500055AC40F26631F6E4309BDDF888801A9373
:10346000139B129360E62A9B239A3493329B3693E4
:10347000249B3593319B2993002381E6B0EE480AC3
:103480002946D4F868020FF08FF8F4E63E9B1293B9
:1034900063E7ADDD129B2A46991E20460FF0B2F875
:1034A0002A46204601210FF0ADF8424641464346E8
:1034B0002046CDE900850FF0E4F820460FF048F9EA
:1034C0000222414620460FF05EF989E71C9B5BB95A
:1034D000289B4C9A013328931D9B13441D93409ABB
:1034E0001B9B13441B93E2E52046FFF77FF95190A5
:1034F0000028EDD053B0BDEC048BBDE8F08F00BFC9
:1035000000000450060001600E7E0800060705500A
:1035100000000550050302702DE9F04F2DED048BDE
:1035200004468DB040B1D0F82CB0BBF1000F05D0EF
:103530003621CE480FF01DF821208DE1036ADFED22
:10354000CC8A13F0010F14BF4FF480624FF4006275
:103550009A42C0F2EB80FFF7F9F9D4ED057AB8EEA4
:10356000E78AE36C276A0793B4F8503017F0010636
:1035700009EE103AE36B05460593236C28EE288A82
:103580000693BDF814A0BDF8189040F0B88007EB82
:10359000D7784FEA6807C8F34F08CDE900A805239C
:1035A000314622680FF01CF805230121CDE900986F
:1035B000A26928460FF014F8226B002A00F0AE80B2
:1035C000A38E00930223194628460EF0F9FFCDE999
:1035D00000A90123A26B032128460FF001F8DFEDBB
:1035E000A40A0021B0EE600A28460EF0E3FFF0EED8
:1035F000480AB0EE480A012128460EF0DBFFB0EE83
:10360000490A032128460EF0CFFF04212846079AD5
:103610000EF0BEFF4FF0000840F22D234246414617
:1036200028460093CDE901884346FFF769F8914B9E
:1036300040F2D712012128460093CDE901888E4B34
:10364000FFF75EF840F2D71202212846CDE9018843
:103650008A4BCDF80080FFF753F8002E63D14A2241
:1036600003212846CDE90166854B0096FFF748F80F
:103670004FF0040800264FF0010B824B5FFA88F8E8
:1036800040F2D71241462846CDE9013B00967E4BD9
:10369000FFF736F83346524631462846CDE90166F3
:1036A000CDF80080FFF750F842F202034A4659462F
:1036B0002846CDE9008302963346FFF745F80221FC
:1036C00020232846CDE9001302965B46BAB2FFF7E5
:1036D0003BF859462846FEF75BFF002840F0BC80C7
:1036E000DDE90510414394F9533094F95220A06B61
:1036F0000DB0BDEC048BBDE8F04FFFF753B91FFAD6
:1037000087F8CDE900A80123594622680EF068FF2A
:103710000123CDE900981946A2694AE701235B4AD3
:10372000009302234FE74FF00308A3E7FFF70EF9DA
:10373000D4ED057AB8EEE78AB4F85030054628EEA5
:10374000288A09EE103AE36BF0EE680A0793236CBF
:10375000B0EE680A59460593E66C276A0EF02AFF18
:10376000F0EE480AB0EE480A012128460EF022FF8A
:1037700003212846B0EE490A0EF016FF07F00108B3
:103780003246042128460EF003FFB8F1000F68D13D
:10379000052307EBD770401006934FF480610BAB05
:1037A0000AAAFFF7DBF8064600287FF4C5AE314BC6
:1037B000014640F2D712CDE90100009328462E4B76
:1037C000FEF79EFF40F2D71201212846CDE901669F
:1037D0002A4B0096FEF794FFB8F1000F44D1022166
:1037E0004A222846CDE90188254BCDF80080FEF716
:1037F00087FF032100264FF00108224B40F2D71229
:103800002846CDE9013800961F4BFEF779FF334675
:1038100031462846BDF82820CDE90166CDF8008064
:10382000FEF792FF22234146CDE900832846334626
:10383000BDF82C200296FEF787FFB246B346079BE1
:103840005B456EDC0598079994F95330414394F930
:103850005220A06BFFF7A6F80DB0BDEC048BBDE8BD
:10386000F08F3846012397E70221C3E7C19401088E
:10387000000000380E7E08000600016006070550B3
:10388000000005500000D0230503045028950108CE
:10389000A36922684B440893236B3244002B3DD02C
:1038A00033F81830A16B08EE103A08EB0A03CB1876
:1038B0000993BDF82C3000210193BDF8283028462B
:1038C0000093069B0EF08CFEBDF82C300121019375
:1038D000BDF828302846089A0093069B0EF080FE1B
:1038E0000123099A0093032128460EF069FEB0EEE9
:1038F000480A052128460EF057FE01212846FEF70A
:1039000047FEB9440028A7D108F10108059B4345AB
:10391000BEDC0BF1010B9A443E4490E740F20003F9
:10392000C0E74FF00009C846F0E700BF58B1031FD9
:103930009FED137A0020DFED136A9FED136A01EB10
:103940004202914200D17047D3ED017AF8EEE77A56
:1039500067EE877AF4EEE67AF1EE10FA03F10403EB
:103960000CDCF4EE467AF1EE10FA48BF2120F3EEBB
:10397000677A17EE90CA21F802CBE2E72120F6E73A
:103980000000003800E07F4700E07FC72DE9F04FDE
:103990002DED048B0368C1B03293C36890ED098AA2
:1039A00021930369D0ED088A11938369D0F804A0AC
:1039B0002A93C36990F838502293036C149116939C
:1039C000C36B1293D0E90C832393C36A2493836A55
:1039D000259383682B9343692C9300233F93FEF731
:1039E000B9FF0446A5B9169B129A134310D02123A0
:1039F0003F93149B8BB1DDE92B321343DB070ED5CC
:103A000021233F934FF47B719D480EF0B2FD04E0FB
:103A1000149B002BEFD13F9B23B13F98F4E23F9BD7
:103A2000002BEFD120460EF0AAFE259A219B9B1A6F
:103A3000129A134493FBF8F3249A0D93119B9B1A4B
:103A4000169A1344239A93FBF2F33493229B03FBBD
:103A50000AF31A93119B03FB0AF318930AFB02F370
:103A60003593189B189A08FB03F33693119B03FBBD
:103A700008F30AFB03F33893219B53431A9A3993B3
:103A80002A9B53432F9300230E934DF6000309EE18
:103A9000103A0E9B229A934206DB149B002BBCD05B
:103AA000FEF756FD3F90B8E7239A0E9B24995343A7
:103AB000169A9A1A2692169AD31A23EAE373269A2A
:103AC0001793119B9B1A179A9942D4BFC2EB01021C
:103AD000C2EB03022D92269A002A1DDB0E9A34991E
:103AE00024989842D8BF0A461D920E9A1D9B9B1A95
:103AF000013309930999DDE935320129D8BF13460D
:103B0000189A299313433A9300232A9A934206DB87
:103B10001D9B01330E93BCE70E9B1D93E5E708FB4D
:103B200003F21299259D501A8A1A219922EAE2720B
:103B3000091A8D42D4BFC2EB0505C2EB010500286E
:103B40000A9574DB2598884271DC0D99C91A4F1CBF
:103B5000002970D00999012973DDA8455BD03FDDAC
:103B6000012FA8EB05095DDC01250D990B91BD42E4
:103B70002946A8BF394633911A99681E6943B1F5A1
:103B8000006FB8BF0020159001303B900998129E3D
:103B90000128D8BF384680B2309008FB03F0801B64
:103BA0000244269E17983044119E06FB02020AFB2F
:103BB00002F222981C920E9A00FB03230AFB03F3E5
:103BC00028931A9BB1F5006FA8BF194600232091D6
:103BD0001093109B339A934236DB0B9B013394E78F
:103BE0000A9991FBF8F508FB1519B9F1000F0DD0F2
:103BF000012F05F10105A8EB090909DD494405FB81
:103C000008F088421CBF28213F9101E0012F0CDC05
:103C10000D990B91ABE7012F13DD414601254FF0C4
:103C20000009ECE741460125E9E70A99E7E70127A2
:103C30000B93012502E03D460D990B914FF00009D1
:103C400095E70D990B91F4E7109BBB42C4BF282365
:103C50003F93109BFB1A93FBF5F205FB1233002BED
:103C600018BF0132012A099B19920BD1012B3DDDAE
:103C70004FF0000B0A9B199A5B44534309E000BFC5
:103C80002A950108012B2FDCB9F1000F29D1CB4671
:103C90000A9B1E93199B3B9ABBF1000F02FB03F397
:103CA0009BB23193ABF10203C8BF4FF0FF333793A0
:103CB000289B13931C9B1B9300231F931F9B329ADB
:103CC000934280F2A681BAF1000F40F38B81139BDF
:103CD000002BBCBF28233F93139B279300230F93F4
:103CE00010E028233F93D2E7CB46C3E70A9B4FF06F
:103CF000000B1E93CEE70F9B139A9B18279344BF8C
:103D000028233F93209B0F9A002BBCBF28233F936F
:103D10001B9B9A180F9B0133534580F228813A9BD5
:103D200027994AEA03030B43134313F001030C934F
:103D300040F02081209B13F001030C9340F01A8186
:103D4000012602230C93189B3D920C9A204693FB6C
:103D5000F2F13C910EF089FC0C9A3C999AFBF2F23C
:103D6000D4F868022E9205920491299A0C99002E9B
:103D700092FBF1F10CBF012305230391BDF8B410B0
:103D8000309A0291BDF87810009201913D9A2B99DA
:103D90003FAE0A44069600213C930EF08EFC0023B1
:103DA00005932E9B0C9A0493209B2C9993FBF2F283
:103DB00001230392BDF824200293319B0192279A9C
:103DC000009306960A443C9B0121D4F868020EF049
:103DD00074FC4DF60003F0EE490A00EE103A0021A3
:103DE000D4F86802FEF7F6FBF8EEE80AF3EE600A94
:103DF0000321B0EE600AD4F86802FEF7EBFBF8EEA0
:103E0000C80AF3EE600A0421B0EE600AD4F8680232
:103E1000FEF7E0FB3246204609990EF0F3FB3246EE
:103E2000204619990EF0EEFB00234FF080520093CC
:103E30004121204601960EF024FC324620460A9984
:103E40000EF0E0FB324620462D990EF0DBFB0023FE
:103E500040F25311754A20460093019640F20A231E
:103E60000EF00FFC20460EF073FC022200212046CB
:103E70000EF089FC20460EF06BFC099B012B04DC44
:103E80000122002120460EF07EFCBBF1000F73DD05
:103E90000222002120460EF076FCBBF1010F6BD010
:103EA0003FAB01934FF01D6340F2D51100932046C4
:103EB0004FF485735E4A0EF0E4FB159BABF10206EE
:103EC000002B1DDD204615993FAA0EF09BFB01211A
:103ED00020463FAA0EF096FB00233FAA1946009306
:103EE000204601921A460EF0CCFB20460EF030FC24
:103EF0000122204611460EF046FC20460EF028FC1A
:103F0000002E17DD012E3FAA47D1314620460EF084
:103F100079FB3FAB0193002320461A4619460093D4
:103F20000EF0AFFB20460EF013FC022200212046CB
:103F30000EF029FC20460EF00BFC02220121204647
:103F40000EF021FC099B012B04DD012200212046FB
:103F50000EF019FC20460EF0FBFB3F9B002B38D0E7
:103F6000149B002B3FF459AD40F25C514CE5002608
:103F70000123E7E60026E6E63FAB01934FF01D6321
:103F800040F2D511009320460023294A0EF079FB18
:103F9000159B002BCEDD379E94E72046ABF1030145
:103FA0000EF030FB20463FAA01210EF02BFB3FAB69
:103FB0000193002320461A46194600930EF061FB38
:103FC00020460EF0C5FB0222002120460EF0DBFB4E
:103FD000A8E7149B93B90F9B0C9A13449A450F932F
:103FE0003FF789AE1F9B399A01331F931B9B1344E4
:103FF0001B932F9A139B134413935FE62046FEF7FF
:10400000F5FB3F900028E6D041B0BDEC048BBDE845
:10401000F08F109B389A013310931C9B13441C9310
:104020001A9A289B13442893D3E500BF020001107D
:1040300003040150032838B504460D4605D80A4B41
:1040400033F81030CB40DB0704D440F2CF310748BF
:104050000EF08FFA1422302313FB0423044A9858DD
:10406000E84000F0010038BD32960108899501084A
:1040700030C0035073B50468012105463A2000F0B2
:1040800085FF002301226179207902F02DFA617900
:104090002079FFF7CFFFB0FA80F0A3794009022B17
:1040A00020701ED100F0D6FB1D4A2B466179207985
:1040B00000F0FAFBFF280246607915D12A4618491C
:1040C00000F02EFCFF28054603D1652115480EF0AF
:1040D00050FA012361792079CDE900332A4602F0B4
:1040E00093F9002002B070BD0123267901460093A8
:1040F0003046002302F080FA2A460949607900F030
:104100000FFCFF28054603D1782106480EF031FA4E
:104110000022012361792079CDE90023DEE700BF89
:10412000E1290108D595010808B501213A2000F0E0
:104130002DFF012304220321002002F0D5F90020E5
:104140000EF091FD0122354B3549C3F844244FF45C
:104150000022A3F550335A66324BD3F8FC20D2012B
:1041600046D4D1F8803023F0030343F00203C1F8B2
:1041700080304FF4607000F031FF2A4B00F5D520FD
:10418000D3F8F02000F2FC4042F00102C3F8F02026
:10419000D3F8FC2042F08072C3F8FC20224AA3F539
:1041A0005D431A60214B0222B0FBF3F0204B013833
:1041B0001861C3F8F0204FF48072C3F804234FF065
:1041C00060431C4A0020C3F8B02F1B4AC3F8802E5E
:1041D000D3F8002E42F48072C3F8002EFF2283F839
:1041E0002020D3F8002E22F48072C3F8002E08BDE0
:1041F000D3F8FC2022F08072C3F8FC20D1F8802094
:1042000022F0030242F00202C1F88020D3F8FC2021
:1042100042F08072C3F8FC20ABE700BF00D003502F
:104220000080005000ED00E0FF030040F8590D0051
:10423000000004E055CEACC5090001004FF060431A
:10424000D3F8802E30B5D20715D501240B4D84400C
:10425000D5F8FC2042F08072C5F8FC20D3F8002E7F
:104260002243C3F8002E53F82020002AF0D003F890
:104270002010002030BD1120FCE700BF00ED00E061
:10428000032838B504460D4605D8094B33F81030DD
:10429000CB40DB0704D440F2FE3106480EF069F94A
:1042A000302301225C43044BAA401A5138BD00BFA1
:1042B0003A9601088995010840E00350032838B573
:1042C00004460D4605D8094B33F81030CB40DB07C8
:1042D00004D440F22D4106480EF04BF93023012260
:1042E0005C43044BAA401A5138BD00BF3A960108FE
:1042F0008995010840D0035038B504784578032CDF
:1043000005D8094B33F81430EB40DB0704D44FF4E5
:10431000896106480EF02DF9302301225C43044BDD
:10432000AA401A5138BD00BF3A9601088995010884
:1043300040F0035070B505780446032D467805D843
:104340000C4B33F81530F340DB0704D44FF4836192
:1043500009480EF00EF91022302313FB0523074AFB
:104360009B58F34003F00100A3780BB980F00100E3
:1043700070BD00BF3A9601088995010830C003500E
:104380002DE9F04F9A46564B85B01B7806460F46EE
:104390001546DDF83C909DF844B0DDF85080002BC8
:1043A00000F09780072A00F296800E9B002B00F009
:1043B0009280B9F1000F00F08E80129BB3F5006F70
:1043C00000F38980012803D1109B002B00F083802B
:1043D000444B03EB05131B7B002B7ED0424C102279
:1043E0000021684610F085FD04EB45141022A7BBA0
:1043F0003946204610F07DFD43F210036380BBF187
:10440000000F03D1E37843F00303E370364A0E9BB9
:1044100002EB451CCCE90193129B6901581E9DF8E3
:104420004C30C0F30A0003F003039B0643EA001E6E
:1044300053582E48012E00EA03004EEA0003CDF83F
:1044400000A0535017D0B8F1000F2ED19CF80230C5
:1044500068F304138CF8023027E00021204610F0A6
:1044600048FD4FF444736380BBF1000FCED1E37875
:1044700043F03003C9E713230CF1100ECCF80C30D5
:104480009CE80F008EE80F006FF00301DCF81C20A1
:10449000109B61F39F02012FCCF81C20CCF8143044
:1044A00003D1CCF81890CCF8043000270D4A29012C
:1044B00002EB051342F80180159A28465A606946B6
:1044C00022469F605E7302F04FF9384605B0BDE8A2
:1044D000F08F0748FAE70748F8E70748F6E700BF14
:1044E000CE3C0020E4360020E43500200F80FFF3AE
:1044F000028000F0018000F0078000F038B5124B18
:1045000005461B78DBB1E0B10EF066FB0F4A0023D5
:104510001146147B54B92B6001251A0101EB0313DA
:104520001D738C500EF05EFB204638BD0133082B06
:1045300002F11002EDD10EF055FB0548F5E70548F4
:10454000F3E70548F1E700BFCE3C0020E436002049
:10455000048000F0028000F0018000F038B50EF019
:104560003BFB002305460B4A147B6CB90133082B37
:1045700002F11002F8D102F06FF8074B28461C70C8
:104580000EF030FB204603E028460EF02BFB0348DC
:1045900038BD00BFE4360020CE3C0020058000F08E
:1045A0000D4B10B51B78044693B1072812D80EF0B6
:1045B00013FB0A4B03EB04131A7B2AB100241C7370
:1045C0000EF010FB204610BD0EF00CFB0448FAE77D
:1045D0000448F8E70448F6E7CE3C0020E436002023
:1045E000068000F0028000F0018000F0154B13B54A
:1045F0001868002301908DF804300EF0EDFA124B8C
:104600001C7824B10EF0EEFA104802B010BD012261
:104610001A700EF0E7FA0E4B01A81C731C7783F892
:104620002C4083F83C4083F84C4083F85C4083F88E
:104630006C4083F87C4008238DF8073002F04AF87C
:104640002046E2E742960108CE3C0020038000F0BD
:10465000E43600200A4A08B512785AB107280BD868
:10466000084A02EB00131B7B43B1002102F012F851
:10467000002008BD0448FCE70448FAE70448F8E7CE
:10468000CE3C0020E4360020028000F0018000F0E3
:10469000078000F00A4A08B512785AB107280BD8EB
:1046A000084A02EB00131B7B43B1012101F0F2FF2A
:1046B000002008BD0448FCE70448FAE70448F8E78E
:1046C000CE3C0020E4360020028000F0018000F0A3
:1046D000078000F00A4A08B5127852B107280AD8B4
:1046E000084A02EB00131B7B3BB102F0BFF800202D
:1046F00008BD0548FCE70548FAE70548F8E700BFAC
:10470000CE3C0020E4360020028000F0018000F062
:10471000078000F00D4B1B7893B1072812D889B1A0
:104720000B4B03EB00131B7B73B10A4B1A6D012378
:104730008340134214BF0123002300200B707047F5
:10474000054870470548704705487047CE3C002033
:10475000E436002000000450028000F0018000F0E8
:10476000078000F00B4A10B512780C4662B107289A
:104770000CD859B1084A02EB00131B7B43B102F07D
:1047800091F82070002010BD0448FCE70448FAE7C7
:104790000448F8E7CE3C0020E4360020028000F018
:1047A000018000F0078000F0184B2DE9F0411F6DEB
:1047B0005B6D1F4000D5FEE701260025144CDFF895
:1047C0005880374218D02368C8F85060A3B1A16858
:1047D000284601316268A1609847637B012B0BD1A9
:1047E00050B90C4B03EB45131A7B60F341021A736B
:1047F0001A7F60F341021A770135082D4FEA460609
:1048000004F11004DDD1BDE8F08100BF00000450C8
:10481000E4360020E43500200020045070B5044642
:1048200001250B4E04B970BD94FAA4F0B0FA80F0E3
:1048300005FA00F306EB001224EA03045368002B88
:10484000F0D0117B11B191689847EBE79847E9E701
:104850006437002008B5192001F034F828B14FF072
:104860000072074BC3F880211A601A2001F02AF861
:1048700028B14FF08062024BC3F880211A6008BD56
:1048800000E100E038B505460C460EF0A5F900221F
:10489000044B03EB05135C601A73BDE838400EF05F
:1048A000A1B900BF64370020F8B504460D4617468D
:1048B0001E460EF091F91CB9052D1AD0FF2421E0F7
:1048C000012C05D1012D21D0032DF7D1042410E0B6
:1048D000022C07D1052D1BD0072D1BD0002DEDD1AB
:1048E000062406E0032CE9D1022D15D0052DE5D1D3
:1048F0000A240A4904F1100301EB03110123C1E961
:1049000001760B730EF06EF92046F8BD0324F0E734
:104910000724EEE70824ECE70924EAE764370020DF
:10492000F8B505460E4617460EF056F9134B2C46C1
:10493000D3F8242405F0FC0122FA05F3DB0712D595
:1049400000230133DBB2042B04D1FF240EF04AF91B
:104950002046F8BDEC1804F003040C4422FA04FCD1
:104960001CF0010FEDD1FF2CF0D00122044B03EB22
:104970000413C3E901671A73E8E700BF00C00350DE
:1049800064370020074BD3F82404D3F8202403F520
:104990000053104000F0553020F05020C3F82004A0
:1049A000FFF73CBF00C00350074BD3F82404D3F8F3
:1049B000202403F50053104000F0AA3020F0A0207E
:1049C000C3F82004FFF72ABF00C00350044BD3F8FC
:1049D0008420D206FBD4D3F88400C0F38110704742
:1049E0000040005038B5124B0546D3F880300C46D5
:1049F00003F00303022B0BD0032B0DD0012B0FD19F
:104A0000FDF790FC0E2305B1286004B1236038BD8A
:104A1000FDF7D2FC0723F6E7FDF77EFC0623F2E75D
:104A2000044841F2DF110DF0A4FD00231846EAE727
:104A3000008000504696010838B51A4B0546D3F859
:104A400020010C4600F00700062821D8DFE800F01E
:104A500028040C1410181C00FDF75EFC052305B19A
:104A6000286004B1236038BDFDF78CFC0323F6E712
:104A7000FDF7A2FC0723F2E7FDF79AFC0223EEE71D
:104A8000FDF74AFC0623EAE7FDF77CFC0423E6E792
:104A9000054841F25C210DF06CFD00231846DEE76D
:104AA0000123DCE7008000504696010838B5194B19
:104AB0000546D3F828310C4603F00703013B052BCC
:104AC00020D8DFE803F003131B0F0B17FDF724FCBE
:104AD000052305B1286004B1236038BDFDF71CFC37
:104AE0000623F6E7FDF768FC0723F2E7FDF74AFC2B
:104AF0000323EEE7FDF746FC0423EAE7FDF758FC45
:104B00000223E6E7044841F264010DF032FD002380
:104B10001846DEE70080005046960108F7B50027EA
:104B2000144B0197D3F88041064604F00304022C8D
:104B30000D4614D0032C0DD0012C14D1394601A8F8
:104B4000FFF77AFF10240EB1019B336005B12C6092
:104B500003B0F0BDFDF730FC07240190F3E7FDF74B
:104B600027FC0190EFE741F2B13103480DF001FD60
:104B70003C46E8E70080005046960108002337B520
:104B80000193194B0546D3F820320C4603F0070376
:104B9000042B1FD8DFE803F025030F1419000021B0
:104BA00001A8FFF783FF12230DB1019A2A6004B117
:104BB000236003B030BDFDF7FFFB07230190F3E74F
:104BC0000DF0D1FC0A230190EEE7FDF737FC092335
:104BD0000190E9E741F2230104480DF0CAFC0023EB
:104BE000E2E70123E0E700BF00800050469601089D
:104BF00038B5104B0546D3F840310C4603F003039B
:104C0000022B0BD0032B0DD0012B0FD10DF0ABFCE1
:104C10000A2305B1286004B1236038BDFDF70EFCFE
:104C20000923F6E70DF0A2FC0C23F2E70123002094
:104C3000EFE700BF00800050002337B50193184B09
:104C40000546D3F860320C4603F00703013B032B03
:104C50001FD8DFE803F0020E1914002101A8FFF7A6
:104C6000EBFE10230DB1019A2A6004B1236003B05A
:104C700030BD002101A8FFF7BBFF1123F2E7FDF7CC
:104C80009BFB07230190EDE7FDF792FB02230190C8
:104C9000E8E741F2C80103480DF06BFC0023E1E7AF
:104CA0000080005046960108002337B50193184B49
:104CB0000546D3F894320C4603F00703013B032B5F
:104CC0001FD8DFE803F0020E1914002101A8FFF736
:104CD000B3FE10230DB1019A2A6004B1236003B022
:104CE00030BD002101A8FFF783FF1123F2E7FDF794
:104CF00063FB07230190EDE7FDF75AFB02230190C8
:104D0000E8E741F2FB0103480DF033FC0023E1E743
:104D1000008000504696010873B500240F4B0194A3
:104D2000D3F87032064603F00303012B0D4607D07B
:104D3000022B11D041F2261109480DF01AFC04E0B3
:104D4000214601A8FFF754FF11240EB1019B3360E7
:104D500005B12C6002B070BD1524F6E7008000504C
:104D60004696010838B5164B0546D3F800020C46A6
:104D700000F00700042819D8DFE800F020030B0F2B
:104D800013000DF0F0FB0A2305B1286004B1236085
:104D900038BDFDF753FB0923F6E70DF0E7FB0C23C5
:104DA000F2E7FDF7D9FA0F23800AEDE7054841F253
:104DB0006F410DF0DEFB00231846E5E70123E3E732
:104DC000008000504696010838B5164B0546D3F8CA
:104DD00008020C4600F00700042819D8DFE800F0AC
:104DE00020030B0F13000DF0BEFB0A2305B1286052
:104DF00004B1236038BDFDF721FB0923F6E70DF070
:104E0000B5FB0C23F2E7FDF7A7FA0F23800AEDE7C5
:104E1000054841F2A7410DF0ACFB00231846E5E739
:104E20000123E3E7008000504696010838B5104B97
:104E30000546D3F840320C4603F00303022B0BD097
:104E4000032B0DD0012B0FD10DF08DFB0A2305B1E3
:104E5000286004B1236038BDFDF7F0FA0923F6E7B6
:104E60000DF084FB0C23F2E701230020EFE700BFE5
:104E70000080005038B5104B0546D3F860310C4621
:104E800003F00303022B0BD0032B0DD0012B0FD10A
:104E90000DF069FB0A2305B1286004B1236038BD19
:104EA000FDF7CCFA0923F6E70DF060FB0C23F2E7DF
:104EB00001230020EFE700BF00800050B0F5207F05
:104EC00010B52ED009D8B0F5007F24D003D868B132
:104ED000B0F5C07F0AD000241BE0B0F5607FFAD1A6
:104EE000124BD3F88040C4F3011412E00F4B1C6F37
:104EF000230B13F00E0FC4F303340AD0072C08D091
:104F00000F2C06D0032C04D040F2852108480DF068
:104F100030FB601C10BD054BD3F89040C4F3046413
:104F2000F7E7024B1C6FC4F38024F2E700800050C7
:104F3000469601084FF4803238B5104B04469A6605
:104F400000200D46FFF7BAFF41F671320C4B60436B
:104F5000DC69DA635A6804F4803422F440125DB9E3
:104F60000849884294BF00200120000502435A608E
:104F70000CB10022DA6338BD0349F2E7009000501B
:104F800000000350005A6202002D310138B5430978
:104F900004460D460ED140F22F310D480DF0E9FACE
:104FA000002304F01F0485B103F580530122A240C1
:104FB0001A6038BD012B04D0022B04D040F23D31E1
:104FC000EBE7044BEDE7044BEBE703F50053EDE7AC
:104FD000469601086480005068800050002130B57A
:104FE000802885B00446CDE9001100F09F8035D8B7
:104FF0005E2846D85E2844D8DFE800F09E4343434D
:105000004343434343434343434343434343434370
:105010004343434343434343434343439EAB9EABDA
:10502000BBBBBBBBBBABC550DB7450ABABAB4343F3
:10503000434343434343ABABAB7CE5AB43434343C5
:10504000434343434343434343BB9E9E9EE05050F0
:10505000EA8B61C04343434343939E00B0F5B06F76
:1050600000F0918030D8B0F5207F72D00FD8B0F525
:10507000C07F61D0B0F5007F61D0B0F5807F00F0D7
:10508000878040F2944155480DF073FA51E0B0F535
:10509000607F69D00DD8B0F5407FF2D1FDF75CF9A3
:1050A00004464FF42070FFF709FFB4FBF0F46408E6
:1050B00058E0B0F5806F5CD0B0F5A06FE1D1002171
:1050C0006846FFF75BFD34E0B0F5106F76D016D878
:1050D000B0F5E06F77D00AD8B0F5C06F69D0B0F501
:1050E000D06FCED100216846FFF73CFE21E0B0F53D
:1050F000F06FC6D100216846FFF7BCFE19E0B0F59D
:10510000406F3BD00AD8B0F5206F61D0B0F5286F62
:10511000B7D100216846FFF7FFFD0AE0B0F5486F00
:10512000AFD100216846FFF7BFFD02E0FDF7FAF8B6
:105130000090009805B030BDFDF70EF9F8E7FDF7D7
:10514000F1F805462046FFF7B9FEB5FBF0F50095EE
:10515000EFE7FDF701F904464FF42070FFF7AEFECC
:10516000B4FBF0F40094E4E701A8FFF73BFC019DD9
:10517000E8E700216846FFF75FFCDAE700216846B0
:10518000FFF794FCD5E700216846FFF7C7FCD0E79E
:105190004FF0E02302911B695B0705D5FDF7DCF8B2
:1051A0000290029B0093C4E703A902A8FFF720FD29
:1051B000F7E700216846FFF71BFDBAE700216846C4
:1051C000FFF702FEB5E700216846FFF72FFEB0E7C4
:1051D00000216846FFF730FDABE700BF46960108A7
:1051E00008B58020FFF7FAFE034B98429EBF4FF4AC
:1051F0008032024B1A6708BD005A620200A00050BC
:105200001FB503460020B3F5807F019000F0C280F7
:1052100063D85D2B54D84C2B06D82D2B46D8232B86
:105220002AD840F27951A4E04D3B102BF9D801A2C5
:1052300052F823F08B530008235200082352000831
:10524000235200083D53000823520008235200084F
:105250000F5400085B530008015300080554000870
:10526000235200082352000823520008235200084A
:105270002352000819540008243B092BD1D801A25D
:1052800052F823F08B5300088B5300088B5300080F
:105290008B5300088B530008235200087B530008EF
:1052A000235200081D530008C15300083D2B00F095
:1052B00082803E2BB5D1002001A9FFF7B7FD60E049
:1052C000802BAED1574B1B6F03F00703013B032B21
:1052D0004DD8DFE803F04A47878FB3F5F06F6AD007
:1052E00021D8B3F5B06F48D00FD8B3F5607F00F088
:1052F000858096D3B3F5806F47D0B3F5A06F90D17A
:10530000002001A9FFF73AFC3BE0B3F5D06F57D07E
:10531000B3F5E06FCFD0B3F5C06F82D1002001A903
:10532000FFF766FC2DE0B3F5206F70D00BD8B3F516
:10533000086F4AD0B3F5106F7FF473AF002001A956
:10534000FFF742FD1DE0B3F5406F5BD0B3F5486F4A
:1053500062D0B3F5286F7FF464AF002001A9FFF796
:10536000DBFC0EE0052301930BE00223FBE740F298
:10537000C6412D480DF0FDF803E0002001A9FFF71C
:10538000CDFB019805B05DF804FB002001A9FFF7F3
:1053900053FBF6E74FF0E02302901B695B0705D54E
:1053A000FCF7DAFF0D230393039BDCE703A902A8B4
:1053B000FFF71EFCF8E7002001A9FFF75BFDE0E71F
:1053C000002001A9FFF7CEFCDBE7164BD3F8003134
:1053D00003F00303022B07D0032B09D0012B0BD1C1
:1053E000FCF7D0FF0323BEE7FDF728F80923BAE74F
:1053F0000DF0B7F80823B6E70123B4E701A9FFF7DA
:10540000F1FABEE7002001A9FFF750FBB9E7002041
:1054100001A9FFF711FCB4E7002001A9FFF744FC44
:10542000AFE700BF00800050469601084FF480129D
:10543000034B5A664FF48032024B9A62704700BFAA
:10544000009000500050005A38B5036804460F2BF6
:1054500004D940F66D317C480DF08BF863680F2B52
:1054600004D94FF4376178480DF083F8A3680F2B07
:1054700004D940F6733174480DF07BF8237B0F2B71
:1054800004D940F6763170480DF073F8637B0F2B2A
:1054900004D940F679316C480DF06BF8A37B3F2BB3
:1054A00004D940F67C3168480DF063F8E37B3F2B6C
:1054B00004D940F67F3164480DF05BF82369032B73
:1054C00004D940F6823160480DF053F86369032B2C
:1054D00004D940F685315C480DF04BF8E369032BA5
:1054E00004D940F6883158480DF043F88020FFF782
:1054F00087FE032800F083804FF48012534B4FF057
:10550000A0615A6645F60E02514BC3F88020514AFD
:1055100091624FF4803102F5805291629A6DD2030C
:10552000FCD4996D11F08041FBD1D4E90002120541
:1055300042EA0062E07B0243207B42EA0042607B59
:1055400042EA0032A07B42EA80121A619869D4E9EB
:105550000452120642EA856200F000400243A07E37
:10556000E57E0243207E42EA0042607E42EA00225B
:105570009A611A6AE06922F00F0242EA8502364D0A
:1055800000283DD11A6294F82420996A94F82000EA
:10559000D200294042EA40120A4394F8211042EA1C
:1055A000011242F480329A622C49294A936D31EA01
:1055B0000303FBD14FF08071264881621369A5680F
:1055C00023F4700343EA055313614FF000438361F2
:1055D00094F822300BB9224B996294F823303BB9EE
:1055E0004FF480321E4B9A62194A936D5B00FCD4D3
:1055F00094F825301BB1164B1A4AC3F8802038BDE9
:10560000024342F0080202281A6208D119614FF4DD
:105610000852996114484FF47F410DF09FFA0C49EC
:1056200094F822308A6A94F820001B062A4043EA44
:105630004013134394F8242043EAC20394F8232030
:1056400043EA02438B62D3E746960108009000507C
:105650000040005A0050005AC7FFFEFE0300010040
:105660000060005AF1A7FFFF3440005A014B93F944
:105670000000704705120020436810B5072B044650
:1056800004D940F6B3512A480CF073FFA368032BEA
:1056900004D940F6B55126480CF06BFF2378032B54
:1056A00004D940F6B75122480CF063FF94F9013059
:1056B000002B04DA40F6B9511D480CF05AFF4FF4A4
:1056C00000011C4A637851664FF4D151022002F563
:1056D000B832516218494F2B48604FF0010028BF83
:1056E0004F2301F5805148601169C903FCD421782A
:1056F00043EA01235361D4E901131B0143EA012367
:10570000617B0B43217B43EA41039360E37BA17BF5
:105710001B0143EA4113617C0B43217C43EA4103B3
:105720005360A37C13B16FF4D153536210BD00BF1B
:10573000469601080090005000100250014B18805E
:10574000704700BFFA110020014B1880704700BF5E
:10575000F8110020B0F5207F38B577D00ED8B0F51D
:10576000007F61D003D890B3B0F5C07F2FD040F256
:105770001231BDE838403D480CF0FBBEB0F5607F0B
:10578000F5D13B4A4C1ED2F8FC5015F080751EBF77
:10579000D2F8FC3023F08073C2F8FC30032C04D91B
:1057A00040F2F22131480CF0E4FE324AD2F8803067
:1057B00023F0300343EA0413C2F8803035B12C4A99
:1057C000D2F8FC3043F08073C2F8FC3038BD4C1E78
:1057D000012C0AD9102903D8274BCB40DB0704D46E
:1057E00040F2C72121480CF0C4FE0DF0C6F90DF0BF
:1057F000D2F94FF48031214B1E4A1967136F23F4FD
:10580000704343EA04331367FCF7A6FD0446FFF731
:10581000DDF8C0F1020120460DF0B7F900F040F8C4
:10582000BDE83840FFF7DCBC4C1E1F2C04D940F209
:1058300006310E480CF09DFE0E4AD2F8903023F04F
:10584000F85343EA0463C2F89030BFE74C1E012CC2
:1058500004D94FF4437105480CF08BFE054A136FD1
:1058600023F4806343EA84231367AFE74696010875
:1058700000ED00E000800050100101000090005099
:1058800008B50121022000F049F80DF076F90DF07D
:1058900082F94FF48032014B1A6708BD0090005026
:1058A00008B54FF4C070FFF799FBBDE80840044904
:1058B000884294BF012102214FF42070FFF74ABFB4
:1058C00080F0FA02C3B24B2B10B5044604D94FF452
:1058D0004D7107480CF04DFE064B620953F822004B
:1058E00004F01F04E040C04300F0010010BD00BF01
:1058F0009196010800E100E0024A536B0342FCD19B
:10590000704700BF00400950034A0179D36E23F06D
:1059100030030B43D366704700400050F8B504468F
:10592000244BD3F88420D006FBD4D3F88430C3F3BF
:1059300081139C423CD0FCF7F5FC012C05460BD1B1
:105940001D4B984204D940F292711C480CF011FE94
:10595000012128460DF019F90DF037F94FF00072CA
:10596000174B07465A6620460DF03FF94FF4806307
:10597000104E621E93403367736E9A0103D4D6F8BB
:1059800084309B060AD538460DF023F9022C0FD13E
:105990002846BDE8F84000210DF0F7B8D6F884306D
:1059A0009906E9D54FF4F46104480CF0E2FDE3E711
:1059B000F8BD00BF00400050005A6202DD960108A9
:1059C0000060005010B50C4608B9FCF7ABFC074B63
:1059D00021461B783BB1064B984204D80120BDE814
:1059E0001040FFF79BBF0220F9E700BFCF3C00202B
:1059F000005A62024FF0004238B5244B244C5A66DC
:105A00004AF6CD33656C014605F00105236428BBD9
:105A10000120FFF771FF6368DB0715D51D4B586048
:105A200008461D4B226BD2070CD4984208D107249C
:105A300015B1174B194A1A640DF0D8F8204638BD35
:105A40000130EFE79842F2D00024F1E70132236BF6
:105A500013F0080305D08A42F8D1E8E700220E4986
:105A6000F5E78A42E3D020210A4A91620121A2F59A
:105A7000805251600649084A886A800603D49342DE
:105A8000D5D00133F8E79342DDE700BF0090005026
:105A9000004009500060095040420F003254FFFF9F
:105AA0004FF0004238B5164B01465A664AF6CD33E0
:105AB000144C154A656C236443780B205B0043F05B
:105AC0000103D363FFF718FF63688A7823F4F87340
:105AD00043EA02136360CA784B7943EA0223A36066
